:100000000C9403010C942B010C942B010C942B01E8
:100010000C942B010C942B010C942B010C942B01B0
:100020000C942B010C942B010C945E0B0C94D00BB4
:100030000C942B010C942B010C942B010C942B0190
:100040000C942B010C947B050C942B010C942B012C
:100050000C942B010C942B010C942B010C94A003F9
:100060000C942B010C94330E0C940D0E0C942B015C
:100070000C942B010C942B010C942B010C942B0150
:100080000C942B010C942B010C942B010C942B0140
:100090000C94CA060C942B010C942B010C942B018C
:1000A0000C942B010C942B010C942B0127022A0297
:1000B00019021D0223024B024B024B022E02320296
:1000C00036023C0240024B024602DF02E402E90231
:1000D000F302FD02470347034703070311031B0312
:1000E0002503320347033A03070605040100080A03
:1000F0000B0C0D0900000000240027002A002D0031
:10010000300000000000250028002B002E003100E8
:100110000000000200090F0000030401000C0000B1
:1001200000000000000000000000000000000000CF
:100130000000002300260029002C002F00040404E6
:10014000040403040502020202040302020202067E
:10015000060606060604040202020404040802015C
:100160001040804010204080408008020401804000
:100170002010020110801020404020080B000202D5
:100180000201000904000001020200000524001021
:1001900001052401010104240206052406000107CB
:1001A00005810310004009040100020A0000000755
:1001B0000502024000000705830240000004030915
:1001C0000441726475696E6F204C4C430041726447
:1001D00075696E6F204C656F6E6172646F001201FD
:1001E00000020000004041233680000101020301AB
:1001F00012010002EF02014041233680000101029A
:100200000301B014A41411241FBECFEFDAE0DEBF47
:10021000CDBF14E0A0E0B1E0EAECF5E302C0059048
:100220000D92A03CB107D9F727E0A0ECB4E001C0E3
:100230001D92A03CB207E1F711E0C2E0D1E004C09A
:100240002197FE010E94F115C130D107C9F70E9424
:100250006C0F0C94D81A0C940000FC0184859585D1
:1002600097FD0BC09FB7F89482E08093E9008091DE
:10027000F2009FBF90E0019608959FB7F89482E046
:100280008093E9008091F2009FBF90E0089585ED92
:100290008093BC008091BC0084FDFCCF10920D05C2
:1002A00008954091E704262F30E0240F311D2132BC
:1002B0003105DCF420910D052430C9F4FC0180E007
:1002C00090E0861758F43091E7042191DC01AB539C
:1002D000BB4FA30FB11D2C930196F3CF8091E70480
:1002E000680F6093E70480E0089581E0089582E05C
:1002F000089508958FEF9FEF08958FEF9FEF089572
:100300008091C40490E09195819591090895CF93CF
:10031000DF9300D0CDB7DEB7CB01642F49835A837A
:100320000E9451014981842F5A81952F0F900F907F
:10033000DF91CF910895CF93DF931F92CDB7DEB7B2
:10034000698361E0CE0101960E94510181E090E055
:100350000F90DF91CF9108950F931F93CF93DF9369
:100360001F92CDB7DEB78C01FC018485958597FF80
:100370000EC0CE0101960E94CF0E019719F429817B
:1003800030E002C02FEF3FEFF80135872487F801F6
:10039000848595850F90DF91CF911F910F910895DE
:1003A000CF93DF931F92CDB7DEB7FC01848595858F
:1003B00097FD05C02FEF3FEF358724870BC0CE0197
:1003C00001960E94CF0E019719F4898190E002C036
:1003D0008FEF9FEF0F90DF91CF91089587E296E026
:1003E0000E944C09892BD1F087E296E00E942A09ED
:1003F00020913C0530913D05F901E05CFA4F808386
:100400002F5F3F4F30933D0520933C052436310547
:100410002CF310923D0510923C05E0CF089590E03A
:10042000FC013197EF30F105B0F5EA5AFF4F0C941B
:10043000F115809180008F7703C0809180008F7DBF
:1004400080938000089580918000877FF9CF84B5E4
:100450008F7702C084B58F7D84BD08958091900010
:100460008F7707C0809190008F7D03C080919000AE
:10047000877F8093900008958091C0008F7703C09C
:100480008091C0008F7D8093C00008958091C2004C
:10049000877F8093C20008951F93CF93DF93282F07
:1004A00030E0F901E05FFE4F8491F901E45AFE4F1C
:1004B000D491F901E35CFE4FC491CC23C9F0162F0F
:1004C00081110E940F02EC2FF0E0EE0FFF1FEE5F94
:1004D000FE4FA591B4918FB7F894111105C09C916E
:1004E000ED2FE095E92302C0EC91ED2BEC938FBF4B
:1004F000DF91CF911F910895CF93DF9390E0FC019E
:10050000E45AFE4F2491FC01E35CFE4F8491882362
:1005100061F190E0880F991FFC01EC50FF4FC591ED
:10052000D491FC01EE5FFE4FA591B491611109C019
:100530009FB7F8948881209582238883EC912E239D
:100540000BC0623061F49FB7F8943881822F809598
:1005500083238883EC912E2B2C939FBF06C08FB7EB
:10056000F894E8812E2B28838FBFDF91CF910895D7
:100570001F93CF93DF93182FEB0161E00E947C0261
:10058000209711F460E004C0CF3FD10539F461E059
:10059000812FDF91CF911F910C944C02E12FF0E05D
:1005A000E05FFE4FE4914E2F50E0FA013197EF30BB
:1005B000F10508F06CC0EB59FF4F0C94F11584B5B0
:1005C000806884BDC7BD68C084B5806284BDC8BD75
:1005D00063C080918000806880938000D093890000
:1005E000C093880059C08091800080628093800011
:1005F000D0938B00C0938A004FC0809180008860A8
:1006000080938000D0938D00C0938C0045C0809172
:100610009000806880939000D0939900C0939800D8
:100620003BC080919000806280939000D0939B00AB
:10063000C0939A0031C080919000886080939000B0
:10064000D0939D00C0939C0027C08091C00080681B
:100650008093C0008091C0008F7B8093C000C093C6
:10066000CF001AC08091C00080628093C000C09308
:10067000D00012C08091C20088608093C200809137
:10068000C2008B7F8093C200C093D20005C0C038E7
:10069000D1050CF07CCF76CFDF91CF911F910895DB
:1006A000823108F08251E82FF0E0E851FF4FE491E9
:1006B00080917B00E3FB222720F930E095E0220FB8
:1006C000331F9A95E1F78F7D282B20937B00E770ED
:1006D000E064E0937C0080917A00806480937A00EB
:1006E00080917A0086FDFCCF80917800209179007E
:1006F00090E0922B08953FB7F89480913505909142
:100700003605A0913705B091380526B5A89B05C0E0
:100710002F3F19F00196A11DB11D3FBFBA2FA92F80
:10072000982F8827820F911DA11DB11DBC01CD01FD
:1007300042E0660F771F881F991F4A95D1F70895E9
:100740001F920F920FB60F9211242F933F938F9306
:100750009F93AF93BF938091A4059091A505A0911D
:10076000A605B091A7053091340523E0230F2D375E
:1007700020F40196A11DB11D05C026E8230F0296A5
:10078000A11DB11D209334058093A4059093A50568
:10079000A093A605B093A7058091350590913605E5
:1007A000A0913705B09138050196A11DB11D809328
:1007B000350590933605A0933705B0933805BF9162
:1007C000AF919F918F913F912F910F900FBE0F90FE
:1007D0001F9018952F923F924F925F926F927F9247
:1007E0008F929F92AF92BF92CF92DF92EF92FF9241
:1007F0000F931F93CF93DF9300D0CDB7DEB78C015B
:1008000049832A83660F771FF801EA5AFF4FE08079
:10081000F180EE0CFF1CF801CF01801B910B8E15AF
:100820009F0514F41192F8CF8981F801E60FF71FA4
:1008300081838A818083580184E5A80EB11C60E021
:10084000F50180810E944C02E00EF11E4801F2E5A4
:100850008F0E911C380180E5680E711CC701801B4A
:10086000910B1816190624F5F701C2907F01F401C7
:100870003080F301208087E0482E512CD12CB60126
:10088000042C02C0759567950A94E2F7617077278A
:10089000822D0E944C0261E0832D0E944C0260E098
:1008A000832D0E944C02F1E04F1A510840F7D6CF39
:1008B00061E0F50180810F900F90DF91CF911F9142
:1008C0000F91FF90EF90DF90CF90BF90AF909F90EF
:1008D0008F907F906F905F904F903F902F900C94EF
:1008E0004C02CF92DF92EF92FF920F931F93CF9320
:1008F000DF938C017B016B0183E0CC0CDD1C8A95BE
:10090000E1F7C1E0D0E0FE01EC0DFD1DE00FF11FAD
:10091000178620E04C2FB701C8010E94EA032196F8
:10092000C930D10581F7DF91CF911F910F91FF90D1
:10093000EF90DF90CF900895CF92DF92EF92FF92E9
:10094000CF93DF93EC01603282E078070CF03DC07A
:1009500077FD06C0653B71052CF064EB70E002C0CA
:1009600060E070E0898128E830E06901C81AD108A8
:1009700087FDD394CC0CDD1CCC0CDD1C0D2C000CA5
:10098000EE08FF088A8128E532E0281B310987FD3F
:100990003395220F331F220F331FC901330FAA0BC8
:1009A000BB0B9C01AD012C193D094E095F09DB0110
:1009B0000E94681A24EB30E040E050E00E943E1AAA
:1009C000C20ED31EE41EF51EB60188818C3080F560
:1009D000998148E850E0491B510997FD5395440F10
:1009E000551F440F551F6417750784F09A8128E539
:1009F00032E0291B310997FD3395220F331F220F57
:100A0000331FAB01261737070CF4A90142505109D7
:100A1000440F551F2FB7F89490E0FC01EE0FFF1F15
:100A20008E0F9F1FFC01EC5EF84F528341832FBF56
:100A3000DF91CF91FF90EF90DF90CF9008951F93BB
:100A4000CF93DF93EC01162F88818C3008F04EC0D5
:100A500061E0812F0E947C028881E82FF0E09F01F5
:100A6000220F331FE20FF31FEC5EF84F1F739081CC
:100A7000907C192B108319821A826CE00E94E51574
:100A80009CE0899FB001112440E050E09A01260FBC
:100A9000371FF901EE0FFF1F2E0F3F1FF901EC5E0C
:100AA000F84F908196FD16C04F5F5F4F4C30510557
:100AB00069F781110FC01092800082E0809381005D
:100AC0001092850010928400B19A80916F0082602C
:100AD00080936F00E881F0E0CF01880F991FE80F45
:100AE000F91FEC5EF84F8081806480838881DF91FC
:100AF000CF911F9108951F920F920FB60F9211245C
:100B00002F933F934F935F936F937F938F939F9315
:100B1000AF93BF93EF93FF938091330587FF05C099
:100B200010928500109284001BC020913305022E84
:100B3000000C330B8091380790E02817390784F4B4
:100B400080913305082E000C990BFC01EE0FFF1F5E
:100B50008E0F9F1FFC01EC5EF84F808186FD15C053
:100B6000809133058F5F8093330520913305022EEA
:100B7000000C330B8091380790E028173907C4F434
:100B8000809133058C3064F113C080913305082EB9
:100B9000000C990BFC01EE0FFF1F8E0F9F1FFC0135
:100BA000EC5EF84F808160E08F730E944C02D8CFDA
:100BB0008091840090918500049680349C4918F4BB
:100BC00080E49CE905C080918400909185000496A2
:100BD00090938900809388008FEF809333053BC00A
:100BE000209184003091850080913305082E000CFF
:100BF000990BFC01EE0FFF1F8E0F9F1FFC01EC5E97
:100C0000F84F81819281820F931F90938900809386
:100C1000880080913305082E000C990BFC01EE0F23
:100C2000FF1F8E0F9F1FFC01EC5EF84F808186FF37
:100C300012C080913305082E000C990BFC01EE0FB9
:100C4000FF1F8E0F9F1FFC01EC5EF84F808161E05B
:100C50008F730E944C02FF91EF91BF91AF919F91D2
:100C60008F917F916F915F914F913F912F910F9055
:100C70000FBE0F901F90189560E08CE00E947C02E0
:100C800060E08DE00E947C0261E083E00E947C02D3
:100C900061E084E00E947C0261E085E00E947C02C9
:100CA00061E086E00E947C0261E087E00E947C02B5
:100CB00061E088E00E947C0261E089E00E947C02A1
:100CC00061E08AE00E947C0261E08BE00E947C028D
:100CD00061E082E00E947C0260E083E00E944C02BE
:100CE00060E084E00E944C0260E070E085E00E94D9
:100CF000B80260E070E086E00E94B80260E087E041
:100D00000E944C0260E088E00E944C0260E089E0B2
:100D10000E944C0260E08AE00E944C0260E08BE09E
:100D20000E944C0260E082E00E944C0280919C078D
:100D300090919D071816190644F421E04CE060E0FC
:100D400070E086E497E00E94EA0380919C0790910E
:100D50009D071816190644F424E04AE060E070E0AC
:100D600086E497E00E94EA0380919C0790919D079A
:100D70001816190634F460E070E086E497E00E94EB
:100D8000710410923D0510923C0510923F0510929F
:100D90003E0508951F920F920FB60F9211242F93C4
:100DA0003F934F935F936F937F938F939F93AF93F3
:100DB000BF93EF93FF938091B900887F803609F449
:100DC0009CC068F5883209F45BC090F4803109F466
:100DD00054C038F4882309F4F6C0883009F44DC0B3
:100DE000F6C0883109F44CC0803209F45DC0EFC010
:100DF000803409F468C048F4803309F455C088335E
:100E000009F0E5C080930C05D8C0803509F44FC0C7
:100E1000883509F45DC0883409F0D9C0D6C0883956
:100E200009F4C7C0A8F4883709F467C038F48836D5
:100E300009F463C0803709F460C0C9C0883809F478
:100E4000B8C0803909F45FC0803809F0C0C05BC009
:100E5000803B09F486C038F4803A09F466C0883AC9
:100E600009F47FC0B4C0803C09F4A7C0883C09F4F1
:100E7000A4C0883B09F48AC0AAC08091320510C082
:100E80009091310580913005981770F5E09131050A
:100E900081E08E0F80933105F0E0E05FFA4F8081B2
:100EA0008093BB0085EC86C080930C058EC0E091DA
:100EB000310581E08E0F809331058091BB00F0E019
:100EC000E05FFA4F808390913105809130056EC0CC
:100ED000E091310581E08E0F809331058091BB0058
:100EE000F0E0E05FFA4F808380910F0581116DC0C3
:100EF00081E080930E0584EA61C083E080930D0554
:100F000010920B05CFCF80910B05803208F051C0B5
:100F1000E0910B0581E08E0F80930B058091BB0063
:100F2000F0E0E551FB4F8083BDCF85EC8093BC00A2
:100F300010920D0580910B05803230F4E0910B0585
:100F4000F0E0E551FB4F108260910B0570E0E091FD
:100F5000E904F091EA048BEE94E0099510920B05F8
:100F600036C084E080930D051092E8041092E704E7
:100F7000E091E504F091E60409958091E704811180
:100F800005C081E08093E7041092C504E091E80475
:100F900081E08E0F8093E804F0E0EB53FB4F8081FB
:100FA0008093BB009091E8048091E704981708F4BF
:100FB00079CF85E88093BC000AC085EC8093BC00A3
:100FC00010920D0504C010920C050E944701FF917C
:100FD000EF91BF91AF919F918F917F916F915F91B1
:100FE0004F913F912F910F900FBE0F901F9018952A
:100FF000682F84EC96E00C94F209CF92DF92FF9276
:101000000F931F93CF93DF931F92CDB7DEB7162FA9
:10101000F72E082F82E099830E94F80780ECC82EF3
:1010200084E0D82E412F5F2D602F9981792FF60112
:101030004083518362837383812F0E94F807F601F6
:1010400081810E94F807F60182810E94F807F6016B
:1010500083810F90DF91CF911F910F91FF90DF90CF
:10106000CF900C94F807EF92FF920F931F93CF93BA
:10107000DF937C01FC01C4810C2F158184E00E9468
:10108000F8078C2F0E94F807C0E0D0E0C017D10706
:1010900044F4BE01C7010E94CC0A0E94F8072196C1
:1010A000F5CFDF91CF911F910F91FF90EF900895B1
:1010B0008FEF0E94F80785E50E94F8070C94650EF3
:1010C000409122065091230620912006309121065E
:1010D00042175307B4F49091E8009570E1F39091B2
:1010E000E80092FD19C08093F10080912206909152
:1010F000230601968F739927892B19F48EEF80931D
:10110000E800809122069091230601969093230691
:101110008093220681E0089580E00895CF92DF92C7
:10112000EF92FF920F931F93CF93DF931F92CDB750
:10113000DEB7182F062FE42E862F880F8E5F998337
:101140000E94600883E00E946008F12EC12E998100
:10115000D92E8C2D8F19801798F4F601E7FE02C066
:10116000849101C080810E946008182F80E00E9455
:1011700060088123FFEFCF1ADF0A8111EACF01C097
:1011800081E00F90DF91CF911F910F91FF90EF9031
:10119000DF90CF900895DF92EF92FF920F931F930D
:1011A000CF93DF93D82E8A017B01E40EF51EEB016D
:1011B000CE15DF0571F0D7FE03C0FE01849101C09A
:1011C00088810E94600821968111F2CF8FEF9FEFF6
:1011D00001C0C801DF91CF911F910F91FF90EF9057
:1011E000DF900895615030F02091F100FC012083E0
:1011F0000196F8CF289884E6809325060895CF922B
:10120000DF92EF92FF920F931F93CF93DF936C01C6
:101210007A018B01C0E0D0E0CE15DF0589F0D8015E
:101220006D918D01D601ED91FC910190F081E02D41
:10123000C6010995892B11F47E0102C02196ECCFDD
:10124000C701DF91CF911F910F91FF90EF90DF9039
:10125000CF900895FC01918D828D981761F0828D59
:10126000DF01A80FB11D5D968C91928D9F5F9F73DA
:10127000928F90E008958FEF9FEF0895FC01918D7C
:10128000828D981731F0828DE80FF11D858D90E0E9
:1012900008958FEF9FEF0895FC01918D228D892F86
:1012A00090E0805C9F4F821B91098F73992708956E
:1012B00087E296E00E944C0921E0892B09F420E0A6
:1012C000822F0895FC01848DDF01A80FB11DA35A60
:1012D000BF4F2C91848D90E001968F739927848F56
:1012E000A689B7892C93A089B1898C9180648C934D
:1012F000938D848D981306C00288F389E02D808138
:101300008F7D80830895EF92FF920F931F93CF9369
:10131000DF93EC0181E0888F9B8D8C8D981305C045
:10132000E889F989808185FD24C0F62E0B8D10E0B7
:101330000F5F1F4F0F731127E02E8C8DE8120CC02A
:101340000FB607FCFACFE889F989808185FFF5CFD0
:10135000CE010E946209F1CF8B8DFE01E80FF11DD5
:10136000E35AFF4FF0820B8FEA89FB89808180620C
:1013700007C0EE89FF896083E889F98980818064EC
:10138000808381E090E0DF91CF911F910F91FF90DA
:10139000EF900895CF93DF93EC01888D8823C9F0F7
:1013A000EA89FB89808185FD05C0A889B9898C916E
:1013B00086FD0FC00FB607FCF5CF808185FFF2CF09
:1013C000A889B9898C9185FFEDCFCE010E94620971
:1013D000E7CFDF91CF9108950E94580981110C94B5
:1013E000EE010895CF93DF931F92CDB7DEB76983E7
:1013F000DC01ED91FC910280F381E02D41E050E0B1
:10140000BE016F5F7F4F09950F90DF91CF910895D7
:1014100083E08093E9008091F200882319F08AE349
:101420008093E80008950F931F93CF93DF931F924B
:10143000CDB7DEB782E0898342E450E06BE771E02C
:1014400080E80E94CB080E94130FDC0112960D91D8
:101450001C9113970115110569F0D801ED91FC91CC
:101460000280F381E02DBE016F5F7F4FC8010995B7
:1014700097FF07C089810F90DF91CF911F910F9146
:101480000895F80100851185E5CF8F929F92AF9264
:10149000BF92CF92DF92EF92FF920F931F93CF9361
:1014A000DF935C016B018A0180910B01882309F4B1
:1014B00059C080912606882309F454C080913A05CA
:1014C00080FF05C08091E00082608093E000E80129
:1014D0008AEFF82E93E0E92E2FE3822E3AE3932E43
:1014E0002097C9F18FB7F894E092E9009091E80055
:1014F00095FF06C09091F200282D291B922F01C064
:1015000090E08FBF911106C0FA94FF2059F10E941C
:10151000F90EE6CF292F30E0C217D3070CF49C2F29
:101520008FB7F894E092E9002091E80025FF11C000
:10153000292F30E0C21BD30BF601915020F04191CE
:101540004093F100FACFC20ED31E9091E80095FFB0
:1015500013C08FBFC5CF5D9884E680932406101614
:10156000110644F081E090E0F5019383828380E0EE
:1015700090E005C0C80103C09092E800EACFDF9177
:10158000CF911F910F91FF90EF90DF90CF90BF9080
:10159000AF909F908F900895FC0124813581621750
:1015A000730748F480819181009729F0FC01E60FD0
:1015B000F71F8081089580E008950F931F93CF93C4
:1015C000DF93EC0188819981009729F02A813B8182
:1015D0002617370788F48B016F5F7F4F0E944518ED
:1015E000009761F0998388831B830A832C813D8156
:1015F000232B11F4FC01108281E001C080E0DF9117
:10160000CF911F910F910895EF92FF920F931F9327
:10161000CF93DF93EC017B018A01BA010E94DD0ABE
:101620002881398181110DC02115310519F0C901B9
:101630000E94AD17198218821D821C821B821A8299
:1016400006C01D830C83B701C9010E941819CE0181
:10165000DF91CF911F910F91FF90EF900895FB01C3
:10166000DC0111961C921E9213961C921E921297E8
:1016700015961C921E9214978617970749F0608161
:1016800071816115710521F0448155810C94040B21
:101690000895FC0111821082138212821582148235
:1016A0006115710551F0FB0101900020E9F73197B8
:1016B000AF01461B570B0C94040B08951F920F9219
:1016C0000FB60F9211248F939F938091E100909118
:1016D000E100937F9093E10083FF0FC01092E90037
:1016E00091E09093EB001092EC0092E39093ED0068
:1016F0001092260698E09093F00082FF20C093E0BD
:101700009093E9009091F200992319F09AE3909355
:10171000E80090912406992339F090912406915085
:1017200090932406992389F190912506992339F005
:1017300090912506915090932506992341F184FFBD
:1017400010C08091E2008E7E81608093E2008091E3
:10175000E1008F7E8093E10080913A058E7E80616A
:1017600011C080FF16C08091E2008E7E8061809360
:10177000E2008091E1008E7E8093E10080913A0545
:101780008E7E816080933A0504C05D9ACDCF289A01
:10179000D6CF9F918F910F900FBE0F901F901895ED
:1017A0001F920F920FB60F921124CF92DF92EF92F9
:1017B000FF920F931F932F933F934F935F936F93DA
:1017C0007F938F939F93AF93BF93EF93FF93CF93A9
:1017D000DF93CDB7DEB76C97DEBFCDBF1092E900C7
:1017E0008091E80083FFFAC168E0CE0145960E942F
:1017F000F20882EF8093E8008D8987FF05C0909101
:10180000E80090FFFCCF03C09EEF9093E800982F74
:10181000907609F0C6C09E892F89188D91110CC051
:10182000803829F480913B058093F10002C010922A
:10183000F1001092F10047C1422F50E0512B91303E
:1018400051F4811140C14130510509F03CC18091F2
:101850003B058D7F0BC0933061F4811134C1413061
:10186000510509F030C180913B05826080933B05B2
:101870002AC1953041F48091E80080FFFCCF2068B8
:101880002093E30020C1963009F05FC0EB8CFC8C04
:101890001092E9001092230610922206123091F560
:1018A00010922106109220060E94130A99E0BE01B0
:1018B0006F5F7F4FDB01E92F1D92EA95E9F799836E
:1018C0001A8391E09E8390EA98879AEF99872091F6
:1018D000220630912306275F3F4F3C832B838D8365
:1018E0001092E9001092230610922206F09221062F
:1018F000E092200649E050E080E00E94CB080E9480
:10190000130AE1C0F0922106E09220060E94130F14
:10191000DC011296ED90FC901397E114F10409F4A8
:10192000C0C0D701ED91FC910480F581E02DBE018E
:101930006B5E7F4FC7010995009719F00CF0C3C08B
:10194000C6C0F701E084F184E8CF973009F4BFC046
:10195000983021F481E08093F100B5C0993009F00E
:10196000B2C0837009F0B3C0EFE7F4E081E021E09A
:1019700036E39081992361F08093E9002093EB0096
:1019800091919093EC003093ED008F5F873089F751
:101990008EE78093EA001092EA008F8980932606F2
:1019A00092C08B8D9C8D1092E900109223061092AC
:1019B00022069093210680932006898D811156C0BE
:1019C0008E899D89913A59F4813209F080C047E0AF
:1019D00050E064E071E080E00E94CB0874C0913276
:1019E00009F075C0833289F4888D90E0982F88279C
:1019F0002F89822BA0E0B0E0809300019093010139
:101A0000A0930201B09303015EC0803269F480911B
:101A1000E80082FFFCCF67E084E091E00E94F208DA
:101A20008BEF8093E80006C0823209F04CC08F89AA
:101A300080930B0180913905882319F0EEEFFAE0CD
:101A400002C0E0E0F8E08091040190910501A091CE
:101A50000601B0910701803B9440A105B10509F052
:101A600088C080910B0180FFA0C083C00E94130F2B
:101A7000DC0112960D911C9113970115110539F196
:101A8000D801ED91FC910190F081E02DBE016B5EDB
:101A90007F4FC8010995811116C0F8010085118595
:101AA000ECCF1130C1F0133091F48F89882309F401
:101AB00055C08230E9F440E860E18DEC91E00E948D
:101AC0008E08882321F08EEF8093E80087C081E2A2
:101AD0008093EB0083C08B8D9C8D089711F410933D
:101AE0001F0680911F06811136C06EED71E038C06F
:101AF000813029F440E86BE081EC91E0E0CF833065
:101B000031F70E94130FDC011296ED90FC901397B1
:101B10008E010F5F1F4F6801E114F10479F0D701C6
:101B2000ED91FC910680F781E02DB801C701099580
:101B3000080F111DF701E084F184EECFD8011C924B
:101B4000F60101900020E9F73197BF016C197D097A
:101B500040E0C601B4CF60EF71E002C06DEB71E010
:101B60006115710509F4B3CFFB01449150E080E8A1
:101B700033CF0FB6F894A895809160008861809368
:101B80006000109260000FBEA895EE3F2AE0F207B9
:101B900039F08091FE0A9091FF0A9183808393CF60
:101BA0001092FF0A1092FE0A8ECFEE3F8AE0F807ED
:101BB00031F0808191819093FF0A8093FE0A87E73C
:101BC00097E7918380839BE088E10FB6F894A8950E
:101BD000809360000FBE9093600075CF6C960FB637
:101BE000F894DEBF0FBECDBFDF91CF91FF91EF9193
:101BF000BF91AF919F918F917F916F915F914F9125
:101C00003F912F911F910F91FF90EF90DF90CF9018
:101C10000F900FBE0F901F9018951F920F920FB646
:101C20000F9211242F933F934F935F936F937F9362
:101C30008F939F93AF93BF93EF93FF9387E296E0C9
:101C40000E946209FF91EF91BF91AF919F918F9197
:101C50007F916F915F914F913F912F910F900FBEA8
:101C60000F901F9018951F920F920FB60F9211248C
:101C70002F938F939F93EF93FF93E0913706F0910B
:101C800038068081E0913D06F0913E0682FD12C04B
:101C90009081809140068F5F8F732091410682175B
:101CA00051F0E0914006F0E0E95DF94F958F8093A7
:101CB000400601C08081FF91EF919F918F912F91FC
:101CC0000F900FBE0F901F901895E091C406F091F1
:101CD000C5060280F381E02D42E050E06DEB74E038
:101CE00084EC96E00994EF92FF920F931F93CF93A9
:101CF000DF938C01FC01E480F580C0E0D0E0CE15DC
:101D0000DF0594F4BE01C8010E94CC0A682F8D3013
:101D100011F08A3011F42196F2CF8535E1F387E294
:101D200096E00E948309F7CFDF91CF911F910F9129
:101D3000FF90EF90089520E830E002C03595279598
:101D40006A95E2F7FC01EA5BF84F442319F0308909
:101D5000232B03C0209530892323208B41E0480F9B
:101D6000208960E070E086E497E00C94EA03262F77
:101D700040919C0750919D07141615067CF48830FD
:101D8000910560F4FC01EA5BF84F608B41E0480F7D
:101D900060E070E086E497E00C94EA030895FC01AB
:101DA00080912606811103C08FEF9FEF08959FB7A2
:101DB000F89482E08093E9002091F20030E012165E
:101DC000130614F421E030E02115310559F028986C
:101DD00084E6809325068091F10080838091F20053
:101DE000882319F09FBFC90108958BE68093E8000E
:101DF000F9CFCF92DF92EF92FF920E947B036B01AB
:101E00007C010E947B03DC01CB018C199D09AE098A
:101E1000BF09883E9340A105B10598F3FF90EF906C
:101E2000DF90CF9008958091A80781110DC082E0C6
:101E30008093A40784E08093A5071092A7071092CF
:101E4000A60781E08093A80784EA97E00895CF92DF
:101E5000DF92EF92FF920F931F93E82FF92F05C0A7
:101E6000015011092109310961F1908196239417DC
:101E7000B9F305C0015011092109310911F190810F
:101E800096239413F7CFC12CD12CE12CF12C0AC04E
:101E90008FEFC81AD80AE80AF80A0C151D052E0596
:101EA0003F0579F080818623841791F36C2D7D2D79
:101EB0008E2D9F2D1F910F91FF90EF90DF90CF906F
:101EC000089560E070E080E090E01F910F91FF9036
:101ED000EF90DF90CF900895CF93DF93CDB7DEB72B
:101EE00061970FB6F894DEBF0FBECDBF789484B56E
:101EF000826084BD84B5816084BD85B5826085BD06
:101F000085B5816085BD80916E00816080936E0093
:101F10001092810080918100826080938100809185
:101F20008100816080938100809180008160809336
:101F30008000809191008260809391008091910057
:101F400081608093910080919000816080939000E7
:101F50008091C10084608093C1008091C100826043
:101F60008093C1008091C10081608093C100809105
:101F7000C30081608093C3008091C0008260809321
:101F8000C0008091C20081608093C20080917A007D
:101F9000846080937A0080917A00826080937A00D6
:101FA00080917A00816080937A0080917A008068C5
:101FB00080937A001092260610923B0510923A0503
:101FC0008091D70081608093D70080EA8093D80009
:101FD00089B5806189BD89B5826089BD09B400FE7B
:101FE000FDCF0E94F90E8091D8008F7C8061809394
:101FF000D8008091E000807F8093E0008091E10034
:102000008E7E8093E1008DE08093E200559A209AC5
:10201000EEEFFFE7859194918B3F9C4D19F481E0A1
:10202000809339058FEF9FEF9093D1068093D00670
:10203000E0913706F091380682E08083E091330624
:10204000F09134061082E0913506F09136068FEC5F
:10205000808310923F06E0913B06F0913C0686E0BB
:102060008083E0913906F0913A0680818061808317
:10207000E0913906F0913A06808188608083E09192
:102080003906F0913A06808180688083E0913906B4
:10209000F0913A0680818F7D80838FE397E00E94E4
:1020A0003C0687E0882E912C60E081E10E944C0282
:1020B0002FB7F8946091A4057091A5058091A605AD
:1020C0009091A7052FBF0E941F1920E030E04AE73A
:1020D00054E40E946B1620911B0630911C0640911F
:1020E0001D0650911E060E94FE1560931706709300
:1020F00018068093190690931A061092160684EC1F
:1021000096E00E942D01181619065CF481E0809378
:1021100016061092A80584EC96E00E94D0018093E8
:10212000150680911606882309F409C480911506C6
:1021300090911406853561F491110AC080911306BF
:102140008F3FE1F481E0809312068093140616C05D
:1021500080931306992391F0E0911206E23019F46E
:102160008093110607C0E33028F09091110691503A
:1021700090931106F0E0E352FA4F808380911206AB
:102180008F5F843318F48093120604C010921206F5
:102190001092140680911406882309F4D0C380910C
:1021A00011068111CCC380911206843008F4C7C394
:1021B000109214061091E0050091E1052091E205CE
:1021C000023009F473C118F4013041F0B6C3043091
:1021D00009F4B1C3053009F4AEC3AFC38FEF298B47
:1021E0000E94F80785E50E94F807812F0E94F807F2
:1021F0001091E3052989223309F4F2C050F42E31FD
:10220000B9F02F3109F43DC021114DC169E377E0E8
:102210003EC12D3309F467C020F42C3309F43EC0CD
:1022200042C1223409F4E7C0253409F4CBC03BC1D4
:1022300060E0812F0E947C02212F30E0F901E05FF5
:10224000FE4F8491F901E45AFE4F1491F901E35CC9
:10225000FE4F0491002309F4AEC081110E940F02C9
:10226000E02FF0E0EE0FFF1FE15DFE4FA591B4916E
:10227000EC911E2391E080E009F490E0692F782F23
:102280009CC0E12FF0E0EE0FFF1FEA5EFE4F1081D1
:1022900060E0812F0E947C02812F99C087E10E941B
:1022A00050038834A1E09A07B8F09C0128543140CB
:1022B0002E3A310560F02E5A31092E3A310548F098
:1022C000845A92408E3A910530F005E005C002E054
:1022D00003C003E001C004E0602F70E080E090E004
:1022E0000E941F1985C060E082E00E944C0283E0DA
:1022F00090E00197F1F761E082E00E944C0283E2F6
:1023000090E00197F1F760E082E00E944C02E2E782
:10231000F1E06491E3E5F1E08491E82FF0E0EE0F65
:10232000FF1FE15DFE4F8591949100EA16E821E0E0
:1023300030E0462F0E94270F611571058105910538
:1023400049F0DC01CB010196A11DB11DBC01CD01FD
:102350009F7003C060E070E0CB010E941F196B0109
:102360007C0120E030E0A9010E94131718161CF52B
:1023700020E030E040E05FE3C701B6010E94801931
:1023800020E030E04AEA53E40E94801920E030E087
:1023900048EC52E40E94801920E034E244E759E41A
:1023A0000E946B1620E030E040E251E40E94801968
:1023B0000E94DD1602C060E070E0072E000C880B62
:1023C000990B0BC0113011F483E101C082E10E942E
:1023D0005003BC01990F880B990B0E94211908C06A
:1023E00060911706709118068091190690911A064F
:1023F0000E94FD0758C040E050E06FEB74E080E4BD
:1024000097E00E94040B80913E0590913F0520913A
:102410003C0530913D0582179307B9F1FC01E05C62
:10242000FA4F808189831A820091440710914507F1
:102430000F5F1F4FB80180E497E00E94DD0A8823F8
:1024400099F0209140073091410780914407909185
:102450004507BE016F5F7F4F820F931F0E941819BF
:10246000109345070093440780913E0590913F05E6
:10247000019690933F0580933E05843691051CF2AA
:1024800010923F0510923E05BECF60E477E0CE018A
:1024900001960E942F0BCE0101960E94330889817C
:1024A0009A810E94AD170E94650E47C20091E30514
:1024B0006FEB74E0CE010796298B0E94490B2989A6
:1024C000283209F41CC1C0F42B3009F4B1C030F437
:1024D000213059F12A3009F4E9C029C2203251F1E2
:1024E000223289F12E3109F022C261E0802F0E9450
:1024F0007C026091E4052CC12F3309F473C138F4D8
:10250000223309F429C12E3309F442C110C2213407
:1025100009F4D4C108F4A2C1233409F008C210E0C0
:10252000A4EEB5E0EBEAF5E0D7C18FE397E00E94B7
:102530003C06FDC161E0802F0E947C026091E405B1
:1025400070E0802FD9C08091E4058093A905809127
:10255000E5058093AA05A090A905B090AA058091F1
:10256000E6058093A9058091E7058093AA0500916F
:10257000A9051091AA05101611061CF4A114B104A6
:1025800019F460E08BE0E5C06501E12CF12C60E41A
:1025900072E48FE090E0A70196010E943E1A690163
:1025A0007A0128EE33E0D8010E94F7156D877E8707
:1025B0008F87988B8601D7FE02C00F5F1F4F15953E
:1025C00007951801220C331C220C331CF5E02F1A3E
:1025D00031080D2C000CEE08FF08412C512C320163
:1025E00021E0A216B10411F460E001C061E08BE0CB
:1025F0000E944C020230110518F0C1010197F1F759
:1026000060E08BE00E944C020230110518F0C1011D
:102610000197F1F74C0C5D1C6E1C7F1C8D859E850F
:10262000AF85B889481659066A067B06C8F27FC18D
:102630001091E4058091A10790E0FC01EE0FFF1FCF
:102640008E0F9F1FFC01EC5EF84F808186FD06C057
:1026500069E070E081EA97E00E941F0580919E0783
:1026600090E0FC01EE0FFF1F8E0F9F1FFC01EC5E40
:10267000F84F808186FD06C06AE070E08EE997E041
:102680000E941F05112319F0612F70E002C060E065
:1026900070E0093019F481EA97E005C00A3009F0CA
:1026A00046C18EE997E00E949C0441C19091E405E7
:1026B0001091E505023029F056E0F52E07E088E09C
:1026C00004C045E0F42E04E083E0112309F43AC18C
:1026D000183C08F018EC913029F460E00E944C029C
:1026E00061E004C061E00E944C0260E0802F0E9423
:1026F0004C02612F70E08F2D0E94B80218C110911A
:10270000E405E091A107F0E0CF01880F991FE80FE1
:10271000F91FEC5EF84F808186FF02C08F7B8083BB
:10272000E0919E07F0E0CF01880F991FE80FF91F95
:10273000EC5EF84F808186FF02C08F7B808361E072
:1027400089E00E947C0261E08AE00E947C02612FA5
:10275000802F0E944C02EBC02FB7F8946091A40523
:102760007091A5058091A6059091A7052FBF0E94A5
:102770001F1920E030E04AE754E40E946B16609392
:102780001B0670931C0680931D0690931E06CFC0F7
:102790009091E4058091E5054091E60520919C0724
:1027A00030919D07413069F4121613060CF0BFC03A
:1027B000883008F0BCC0B401691B710977FDB7C04F
:1027C0000DC0121613060CF0B2C0883008F0AFC06E
:1027D000B401691B710977FDAAC040E090E00E9436
:1027E0009B0EA5C00091E40598E0099F800111248B
:1027F000025D1E4FD8016C9180E090E00E94B70E00
:10280000F801618181E090E00E94B70ED801129634
:102810006C9182E090E00E94B70EF801638183E042
:1028200090E00E94B70ED80114966C9184E090E07D
:102830000E94B70EF801658185E090E00E94B70E16
:10284000D80116966C9186E090E00E94B70EF801D0
:10285000678187E090E00E94B70E69C00091E405AF
:10286000E090E50580919C0790919D071816190648
:102870000CF05DC0083008F05AC0C12CD12CF12CEE
:1028800010E080919C0790919D071816190674F42A
:10289000C4018C199D09A70102C0559547958A95D9
:1028A000E2F74170B801C6010E949B0EFFEFCF1AFC
:1028B000DF0A28E0C216D10421F739C080919C07B5
:1028C00090919D071816190694F560E070E086E473
:1028D00097E00E9471042BC0CF018B5A954080175E
:1028E00091071CF48D918193F7CFF801E555FA4FCC
:1028F0001082EBEAF5E001900020E9F73197AF0193
:102900004B5A55406BEA75E0CE0107960E94040BC6
:10291000BE01695F7F4FCE0101960E942F0BCE0151
:1029200001960E94730E89819A810E94AD178F8152
:1029300098850E94AD170E945808109212060E94B6
:10294000EC09B2CB60E0CFCE8091390790913A0785
:102950000E94AD1780914007909141070C94AD17EC
:10296000CF93DF9310922A061092290688EE93E007
:10297000A0E0B0E080932B0690932C06A0932D0648
:10298000B0932E0629E834E03093280620932706DA
:102990002DEC30E030933406209333062CEC30E0FD
:1029A000309336062093350628EC30E03093380615
:1029B0002093370629EC30E030933A06209339060D
:1029C0002AEC30E030933C0620933B062EEC30E0BE
:1029D00030933E0620933D06109240061092410629
:1029E00010924206109243061092C7061092C60635
:1029F0008093C8069093C906A093CA06B093CB06ED
:102A000089E994E09093C5068093C4068FEF9FEF09
:102A10009093D1068093D006809138078C30A0F433
:102A200091E0980F909338078093A10790E0FC0104
:102A3000EE0FFF1F8E0F9F1FFC01EC5EF84F88EB1F
:102A40009BE09283818303C08FEF8093A1078091E5
:102A500038078C30A0F491E0980F9093380780935A
:102A60009E0790E0FC01EE0FFF1F8E0F9F1FFC01E1
:102A7000EC5EF84F88EB9BE09283818303C08FEF7D
:102A800080939E07C0E1D0E0D0939707C09396074C
:102A90008FE090E090939907809398078EE090E004
:102AA00090939B0780939A0781E090E090939D0715
:102AB00080939C0761E080E10E947C0261E080914C
:102AC00098070E947C0261E080919A070E947C0234
:102AD00061E080919A070E944C02D0939707C093BF
:102AE0009607E6E5F7E0119287E0E639F807D9F7AF
:102AF000C0E0D0E080919C0790919D07C817D9074E
:102B0000E4F520E04FE0BE0186E497E00E94EA038E
:102B1000D7FD0EC080919C0790919D07C817D907DB
:102B20003CF427E04BE0BE0186E497E00E94EA0314
:102B300020E049E0BE0186E497E00E94EA03D7FD69
:102B40001AC080919C0790919D07C817D9072CF453
:102B5000BE0186E497E00E94710480919C079091E9
:102B60009D07C817D9073CF420E04CE0BE0186E47D
:102B700097E00E94EA032196BDCF6FEB74E080E4FA
:102B800097E00E94490B1092B3071092B20788EEAB
:102B900093E0A0E0B0E08093B4079093B507A093D2
:102BA000B607B093B70789EA94E09093B107809392
:102BB000B0078FE397E00E943C0665EB74E089E381
:102BC00097E0DF91CF910C94490B991B79E004C0F9
:102BD000991F961708F0961B881F7A95C9F780955C
:102BE0000895EE0FFF1F0590F491E02D09940E94C7
:102BF000C91AB7FF0895821B930B08955058BB273D
:102C0000AA270E9416160C94041A0E94F61938F08E
:102C10000E94FD1920F039F49F3F19F426F40C941A
:102C2000F3190EF4E095E7FB0C94ED19E92F0E94DF
:102C3000151A58F3BA17620773078407950720F02F
:102C400079F4A6F50C94371A0EF4E0950B2EBA2FF2
:102C5000A02D0B01B90190010C01CA01A0011124A2
:102C6000FF27591B99F0593F50F4503E68F11A164E
:102C7000F040A22F232F342F4427585FF3CF4695DF
:102C800037952795A795F0405395C9F77EF41F1601
:102C9000BA0B620B730B840BBAF09150A1F0FF0FCB
:102CA000BB1F661F771F881FC2F70EC0BA0F621FB7
:102CB000731F841F48F4879577956795B795F795A7
:102CC0009E3F08F0B0CF9395880F08F09927EE0F3C
:102CD0009795879508950E947F160C94041A0E9478
:102CE000FD1958F00E94F61940F029F45F3F29F0D1
:102CF0000C94ED1951110C94381A0C94F3190E948C
:102D0000151A68F39923B1F3552391F3951B550BCD
:102D1000BB27AA2762177307840738F09F5F5F4FAE
:102D2000220F331F441FAA1FA9F335D00E2E3AF0ED
:102D3000E0E832D091505040E695001CCAF72BD005
:102D4000FE2F29D0660F771F881FBB1F2617370756
:102D50004807AB07B0E809F0BB0B802DBF01FF2788
:102D600093585F4F3AF09E3F510578F00C94ED195F
:102D70000C94381A5F3FE4F3983ED4F38695779528
:102D80006795B795F7959F5FC9F7880F911D969541
:102D9000879597F90895E1E0660F771F881FBB1F9D
:102DA000621773078407BA0720F0621B730B840B4A
:102DB000BA0BEE1F88F7E09508950E94E416689418
:102DC000B1110C94381A08950E941D1A88F09F576B
:102DD00098F0B92F9927B751B0F0E1F0660F771F3F
:102DE000881F991F1AF0BA95C9F714C0B13091F035
:102DF0000E94371AB1E008950C94371A672F782F84
:102E00008827B85F39F0B93FCCF3869577956795F9
:102E1000B395D9F73EF490958095709561957F4F65
:102E20008F4F9F4F08950E945C1908F48FEF08950B
:102E3000CF93DF938230910510F482E090E0E0912F
:102E4000BE07F091BF0720E030E0C0E0D0E030974F
:102E500011F14081518148175907C0F048175907AF
:102E600061F482819381209719F09B838A832BC020
:102E70009093BF078093BE0726C02115310519F036
:102E80004217530718F49A01BE01DF01EF010280D7
:102E9000F381E02DDCCF2115310509F1281B390B19
:102EA0002430310590F412968D919C911397611501
:102EB000710521F0FB019383828304C09093BF07C7
:102EC0008093BE07FD01329644C0FD01E20FF31F5F
:102ED00081939193225031092D933C933AC02091D4
:102EE000BC073091BD07232B41F420910E01309196
:102EF0000F013093BD072093BC0720910C01309146
:102F00000D012115310541F42DB73EB74091100157
:102F100050911101241B350BE091BC07F091BD07C6
:102F2000E217F307A0F42E1B3F0B2817390778F0A0
:102F3000AC014E5F5F4F2417350748F04E0F5F1FFF
:102F40005093BD074093BC078193919302C0E0E08A
:102F5000F0E0CF01DF91CF9108950F931F93CF93AE
:102F6000DF93009709F48CC0FC0132971382128220
:102F70000091BE071091BF070115110581F4208152
:102F80003181820F931F2091BC073091BD07281714
:102F9000390779F5F093BD07E093BC0771C0D801FC
:102FA00040E050E0AE17BF0750F412962D913C91CF
:102FB0001397AD012115310509F1D901F3CF9D0119
:102FC000DA013383228360817181860F971F821714
:102FD000930769F4EC0128813981260F371F2E5F92
:102FE0003F4F318320838A819B8193838283452B4A
:102FF00029F4F093BF07E093BE0742C01396FC93F9
:10300000EE931297ED01499159919E01240F351FBE
:10301000E217F30771F480819181840F951F029666
:1030200011969C938E938281938113969C938E9399
:103030001297E0E0F0E0D80112968D919C911397E1
:10304000009719F0F8018C01F6CF8D919C919801B1
:103050002E5F3F4F820F931F2091BC073091BD0719
:103060002817390769F4309729F41092BF07109296
:10307000BE0702C0138212821093BD070093BC07E3
:10308000DF91CF911F910F910895A0E0B0E0EBE4A4
:10309000F8E10C94741AEC01009721F4CB010E9422
:1030A0001817B8C0FC01E60FF71F9C012250310928
:1030B000E217F30708F4ACC0D9010D911C911197E8
:1030C00006171707B0F00530110508F49FC0C801B6
:1030D00004978617970708F499C002501109061B38
:1030E000170B019311936D937C93CF010E94AD1741
:1030F0008DC05B01A01AB10A4C01800E911EA091F7
:10310000BE07B091BF0740E050E0E12CF12C1097D2
:1031100009F44AC0A815B905D1F56D907C901197B6
:10312000630182E0C80ED11CCA14DB0480F1A30144
:103130004A195B096A0182E0C80ED11C1296BC9044
:1031400012971396AC91B5E0CB16D10440F0B28241
:10315000A38351834083D9016D937C930AC00E5F92
:103160001F4FC301800F911FF90191838083EB2DC5
:10317000FA2FE114F10431F0D7011396FC93EE938A
:10318000129744C0F093BF07E093BE073FC08D91F4
:103190009C9111974817590708F4AC017D011296CC
:1031A0000D90BC91A02DB3CF8091BC079091BD072D
:1031B00088159905E1F446175707C8F480910C016A
:1031C00090910D01009741F48DB79EB74091100189
:1031D00050911101841B950BE817F907C8F4F0937F
:1031E000BD07E093BC07F901718360830FC0CB0179
:1031F0000E9418177C01009759F0A801BE010E9497
:103200000F19CE010E94AD17C70104C0CE0102C044
:1032100080E090E0CDB7DEB7EEE00C94901AFB01B1
:10322000DC0102C001900D9241505040D8F7089542
:10323000FB01DC0101900D920020E1F70895E89474
:1032400009C097FB3EF490958095709561957F4FEE
:103250008F4F9F4F9923A9F0F92F96E9BB2793959C
:10326000F695879577956795B795F111F8CFFAF4AC
:10327000BB0F11F460FF1BC06F5F7F4F8F4F9F4FDD
:1032800016C0882311F096E911C0772321F09EE83B
:10329000872F762F05C0662371F096E8862F70E0A1
:1032A00060E02AF09A95660F771F881FDAF7880F7B
:1032B0009695879597F90895990F0008550FAA0BD1
:1032C000E0E8FEEF16161706E807F907C0F0121639
:1032D0001306E407F50798F0621B730B840B950B3C
:1032E00039F40A2661F0232B242B252B21F4089591
:1032F0000A2609F4A140A6958FEF811D811D08952E
:103300000E9493190C94041A0E94F61938F00E9436
:10331000FD1920F0952311F00C94ED190C94F3197C
:1033200011240C94381A0E94151A70F3959FC1F35A
:10333000950F50E0551F629FF001729FBB27F00D63
:10334000B11D639FAA27F00DB11DAA1F649F6627B8
:10335000B00DA11D661F829F2227B00DA11D621F07
:10336000739FB00DA11D621F839FA00D611D221FC1
:10337000749F3327A00D611D231F849F600D211DA5
:10338000822F762F6A2F11249F5750409AF0F1F028
:1033900088234AF0EE0FFF1FBB1F661F771F881F91
:1033A00091505040A9F79E3F510580F00C94ED19C3
:1033B0000C94381A5F3FE4F3983ED4F386957795E2
:1033C0006795B795F795E7959F5FC1F7FE2B880F37
:1033D000911D9695879597F9089597F99F6780E8CD
:1033E00070E060E008959FEF80EC089500240A9457
:1033F0001616170618060906089500240A941216D0
:103400001306140605060895092E0394000C11F402
:10341000882352F0BB0F40F4BF2B11F460FF04C0AF
:103420006F5F7F4F8F4F9F4F089557FD9058440F08
:10343000551F59F05F3F71F04795880F97FB991F13
:1034400061F09F3F79F087950895121613061406D0
:10345000551FF2CF4695F1DF08C01616170618065D
:10346000991FF1CF86957105610508940895E89438
:10347000BB2766277727CB0197F90895052E97FB81
:103480001EF400940E94551A57FD07D00E94A71AF7
:1034900007FC03D04EF40C94551A50954095309586
:1034A00021953F4F4F4F5F4F0895909580957095B0
:1034B00061957F4F8F4F9F4F08950E94C91AA59F16
:1034C000900DB49F900DA49F800D911D112408951F
:1034D000B7FF0C945D1A0E945D1A821B930B08952E
:1034E0002F923F924F925F926F927F928F929F9214
:1034F000AF92BF92CF92DF92EF92FF920F931F9302
:10350000CF93DF93CDB7DEB7CA1BDB0B0FB6F894B2
:10351000DEBF0FBECDBF09942A88398848885F84F2
:103520006E847D848C849B84AA84B984C884DF8063
:10353000EE80FD800C811B81AA81B981CE0FD11D47
:103540000FB6F894DEBF0FBECDBFED010895A1E226
:103550001A2EAA1BBB1BFD010DC0AA1FBB1FEE1F0D
:10356000FF1FA217B307E407F50720F0A21BB30B58
:10357000E40BF50B661F771F881F991F1A9469F7D4
:1035800060957095809590959B01AC01BD01CF0130
:103590000895A29FB001B39FC001A39F700D811D2C
:1035A0001124911DB29F700D811D1124911D08954C
:1035B00011E0C2E0D1E004C0FE010E94F1152196A5
:0A35C000C330D107C9F7F894FFCF1C
:1035CA00FFFFFFFF00E10000000000000000C0074D
:1035DA0080000100000012001300140015001600FC
:1035EA001700180019001A001B001C001D0000FC1F
:1035FA00121212FC000000FE9292927C0000007CE3
:10360A0082828244000000FE8282827C000000FEE8
:10361A0092929292000000FE121212020000007CA6
:10362A0082A2A264000000FE101010FE000000003A
:10363A0000FE0000000000608080807E000000FE26
:10364A0010284482000000FE80808080000000FE76
:10365A00040804FE000000FE081020FE0000007CA2
:10366A008282827C000000FE1212120C0000007C92
:10367A0082A2C27C800000FE1232528C0000004CF2
:10368A00929292640000000202FE02020000007E92
:10369A008080807E0000003E4080403E000000FEA8
:1036AA00402040FE000000C6281028C60000000680
:1036BA0008F00806000000C2A2928A8600000004F0
:1036CA00847404140C0000202010F8040200001C6A
:1036DA008486443C0000008484FC84840000004802
:1036EA002898FE0808000084443E04847C000010E8
:1036FA00141E7494100000108E84443C00000010C4
:10370A008E88780808000084848484FC00000008FD
:10371A003E88887E08000088928440201800008431
:10372A0044342CC0000000087E8884A49C00000455
:10373A009880403C000000108E94643C0000001009
:10374A0094947C1210000008908488403C00001079
:10375A009494741410000000FE10102000000088D9
:10376A0088483E080800008084848484800000849D
:10377A009454245C8000002424F61C240000008059
:10378A008040300C0000C03C00000418E000007EBD
:10379A0088888884000000048484443C0000002057
:1037AA00100810204000006404FE046400000004B5
:1037BA001424C4241C0000004A4A9494000080C0C7
:1037CA00B8864060800000804828106E000000140F
:1037DA007C949494000010121CE804241C000080BD
:1037EA008484FC8080000000949494FC000000080B
:1037FA000A8A8A4A380000009E80403E000000C0C3
:10380A003C00FE8040300000FE804030000000FC9A
:10381A00848484FC0000001C048484443C0000145A
:10382A009494543C000000848880402018000000D2
:10383A00101010101000000010005040200000006E
:10384A001078103010000000405070400000000056
:10385A0000547C0000000000000006000600000082
:10386A000000040A04000000FE8282FE000000003C
:10387A000084FE8000000000F292929E0000000088
:10388A00929292FE000000302824FE2000000000E0
:10389A009E9292F200000000FE9292F20000000056
:1038AA000E0202FE00000000FE9292FE00000000DE
:1038BA009E9292FE0000000000DFDF000000002060
:1038CA00444040442000181818FFFF181818824571
:1038DA0022100844A2413C42B1D5D5B9423C00006D
:1038EA000601A1110E000205027C828282440205B1
:1038FA000200000000001C3E7EFCFC7E3E1CC0E074
:10390A00E07F062418007E464A52524A467E3C42CE
:10391A00819F9191423C3C42A1918985423C404E13
:10392A0091F595514E20080C0E7F8E4C080040AC44
:10393A0092B24CA010000048FE24247F120000C15D
:10394A008081000000000000008309FF084C092A5A
:10395A00093E09CA0900000000F209450A2D01D0F2
:10396A0001AC01080A000000009B01870180017D6B
:10397A00017A017901312E312E313033000D0A00DE
:00000001FF
